{
  "_format": "hh-sol-artifact-1",
  "contractName": "Donate",
  "sourceName": "contracts/Donate.sol",
  "abi": [
    {
      "inputs": [],
      "stateMutability": "payable",
      "type": "constructor"
    },
    {
      "inputs": [
        {
          "internalType": "address",
          "name": "charityAddress",
          "type": "address"
        },
        {
          "internalType": "string",
          "name": "name",
          "type": "string"
        },
        {
          "internalType": "string",
          "name": "description",
          "type": "string"
        }
      ],
      "name": "addCharity",
      "outputs": [],
      "stateMutability": "payable",
      "type": "function"
    },
    {
      "inputs": [],
      "name": "beTheManager",
      "outputs": [],
      "stateMutability": "payable",
      "type": "function"
    },
    {
      "inputs": [
        {
          "internalType": "address",
          "name": "",
          "type": "address"
        }
      ],
      "name": "charities",
      "outputs": [
        {
          "internalType": "address",
          "name": "charityAddress",
          "type": "address"
        },
        {
          "internalType": "string",
          "name": "name",
          "type": "string"
        },
        {
          "internalType": "string",
          "name": "description",
          "type": "string"
        },
        {
          "internalType": "uint256",
          "name": "balance",
          "type": "uint256"
        },
        {
          "internalType": "uint256",
          "name": "index",
          "type": "uint256"
        }
      ],
      "stateMutability": "view",
      "type": "function"
    },
    {
      "inputs": [
        {
          "internalType": "uint256",
          "name": "",
          "type": "uint256"
        }
      ],
      "name": "charityAddresses",
      "outputs": [
        {
          "internalType": "address",
          "name": "",
          "type": "address"
        }
      ],
      "stateMutability": "view",
      "type": "function"
    },
    {
      "inputs": [
        {
          "internalType": "address",
          "name": "charityAddress",
          "type": "address"
        }
      ],
      "name": "donate",
      "outputs": [],
      "stateMutability": "payable",
      "type": "function"
    },
    {
      "inputs": [],
      "name": "getAllCharityAddress",
      "outputs": [
        {
          "internalType": "address[]",
          "name": "",
          "type": "address[]"
        }
      ],
      "stateMutability": "view",
      "type": "function"
    },
    {
      "inputs": [],
      "name": "manager",
      "outputs": [
        {
          "internalType": "address",
          "name": "",
          "type": "address"
        }
      ],
      "stateMutability": "view",
      "type": "function"
    },
    {
      "inputs": [
        {
          "internalType": "address",
          "name": "charityAddress",
          "type": "address"
        }
      ],
      "name": "removeCharity",
      "outputs": [],
      "stateMutability": "payable",
      "type": "function"
    },
    {
      "inputs": [],
      "name": "withdraw",
      "outputs": [],
      "stateMutability": "payable",
      "type": "function"
    }
  ],
  "bytecode": "0x6080604052336000806101000a81548173ffffffffffffffffffffffffffffffffffffffff021916908373ffffffffffffffffffffffffffffffffffffffff16021790555061185c806100536000396000f3fe6080604052600436106100855760003560e01c80633ccfd60b116100595780633ccfd60b14610140578063481c6a751461014a57806387a677bf14610175578063abefe5911461017f578063ea2df8bc1461019b57610085565b8062362a951461008a57806303f744cb146100a65780632478239a146100e35780633843058f14610124575b600080fd5b6100a4600480360381019061009f9190610e60565b6101c6565b005b3480156100b257600080fd5b506100cd60048036038101906100c89190610ec3565b6102f8565b6040516100da9190610eff565b60405180910390f35b3480156100ef57600080fd5b5061010a60048036038101906101059190610e60565b610337565b60405161011b959493929190610fb9565b60405180910390f35b61013e6004803603810190610139919061114f565b61049d565b005b610148610770565b005b34801561015657600080fd5b5061015f61099b565b60405161016c9190610eff565b60405180910390f35b61017d6109bf565b005b61019960048036038101906101949190610e60565b610a01565b005b3480156101a757600080fd5b506101b0610d03565b6040516101bd9190611298565b60405180910390f35b80600073ffffffffffffffffffffffffffffffffffffffff16600160008373ffffffffffffffffffffffffffffffffffffffff1673ffffffffffffffffffffffffffffffffffffffff16815260200190815260200160002060000160009054906101000a900473ffffffffffffffffffffffffffffffffffffffff1673ffffffffffffffffffffffffffffffffffffffff1603610298576040517f08c379a000000000000000000000000000000000000000000000000000000000815260040161028f90611306565b60405180910390fd5b6000600160008473ffffffffffffffffffffffffffffffffffffffff1673ffffffffffffffffffffffffffffffffffffffff16815260200190815260200160002090503481600301546102eb9190611355565b8160030181905550505050565b6002818154811061030857600080fd5b906000526020600020016000915054906101000a900473ffffffffffffffffffffffffffffffffffffffff1681565b60016020528060005260406000206000915090508060000160009054906101000a900473ffffffffffffffffffffffffffffffffffffffff1690806001018054610380906113b8565b80601f01602080910402602001604051908101604052809291908181526020018280546103ac906113b8565b80156103f95780601f106103ce576101008083540402835291602001916103f9565b820191906000526020600020905b8154815290600101906020018083116103dc57829003601f168201915b50505050509080600201805461040e906113b8565b80601f016020809104026020016040519081016040528092919081815260200182805461043a906113b8565b80156104875780601f1061045c57610100808354040283529160200191610487565b820191906000526020600020905b81548152906001019060200180831161046a57829003601f168201915b5050505050908060030154908060040154905085565b60008054906101000a900473ffffffffffffffffffffffffffffffffffffffff1673ffffffffffffffffffffffffffffffffffffffff163373ffffffffffffffffffffffffffffffffffffffff161461052b576040517f08c379a00000000000000000000000000000000000000000000000000000000081526004016105229061145b565b60405180910390fd5b600073ffffffffffffffffffffffffffffffffffffffff16600160008573ffffffffffffffffffffffffffffffffffffffff1673ffffffffffffffffffffffffffffffffffffffff16815260200190815260200160002060000160009054906101000a900473ffffffffffffffffffffffffffffffffffffffff1673ffffffffffffffffffffffffffffffffffffffff16146105fc576040517f08c379a00000000000000000000000000000000000000000000000000000000081526004016105f3906114ed565b60405180910390fd5b6040518060a001604052808473ffffffffffffffffffffffffffffffffffffffff16815260200183815260200182815260200160008152602001600280549050815250600160008573ffffffffffffffffffffffffffffffffffffffff1673ffffffffffffffffffffffffffffffffffffffff16815260200190815260200160002060008201518160000160006101000a81548173ffffffffffffffffffffffffffffffffffffffff021916908373ffffffffffffffffffffffffffffffffffffffff16021790555060208201518160010190816106da91906116b9565b5060408201518160020190816106f091906116b9565b5060608201518160030155608082015181600401559050506002839080600181540180825580915050600190039060005260206000200160009091909190916101000a81548173ffffffffffffffffffffffffffffffffffffffff021916908373ffffffffffffffffffffffffffffffffffffffff160217905550505050565b33600073ffffffffffffffffffffffffffffffffffffffff16600160008373ffffffffffffffffffffffffffffffffffffffff1673ffffffffffffffffffffffffffffffffffffffff16815260200190815260200160002060000160009054906101000a900473ffffffffffffffffffffffffffffffffffffffff1673ffffffffffffffffffffffffffffffffffffffff1603610842576040517f08c379a000000000000000000000000000000000000000000000000000000000815260040161083990611306565b60405180910390fd5b6000600160003373ffffffffffffffffffffffffffffffffffffffff1673ffffffffffffffffffffffffffffffffffffffff16815260200190815260200160002060030154036108c7576040517f08c379a00000000000000000000000000000000000000000000000000000000081526004016108be906117d7565b60405180910390fd5b3373ffffffffffffffffffffffffffffffffffffffff166108fc600160003373ffffffffffffffffffffffffffffffffffffffff1673ffffffffffffffffffffffffffffffffffffffff168152602001908152602001600020600301549081150290604051600060405180830381858888f1935050505015801561094f573d6000803e3d6000fd5b506000600160003373ffffffffffffffffffffffffffffffffffffffff1673ffffffffffffffffffffffffffffffffffffffff1681526020019081526020016000206003018190555050565b60008054906101000a900473ffffffffffffffffffffffffffffffffffffffff1681565b336000806101000a81548173ffffffffffffffffffffffffffffffffffffffff021916908373ffffffffffffffffffffffffffffffffffffffff160217905550565b60008054906101000a900473ffffffffffffffffffffffffffffffffffffffff1673ffffffffffffffffffffffffffffffffffffffff163373ffffffffffffffffffffffffffffffffffffffff1614610a8f576040517f08c379a0000000000000000000000000000000000000000000000000000000008152600401610a869061145b565b60405180910390fd5b80600073ffffffffffffffffffffffffffffffffffffffff16600160008373ffffffffffffffffffffffffffffffffffffffff1673ffffffffffffffffffffffffffffffffffffffff16815260200190815260200160002060000160009054906101000a900473ffffffffffffffffffffffffffffffffffffffff1673ffffffffffffffffffffffffffffffffffffffff1603610b61576040517f08c379a0000000000000000000000000000000000000000000000000000000008152600401610b5890611306565b60405180910390fd5b6000600160008473ffffffffffffffffffffffffffffffffffffffff1673ffffffffffffffffffffffffffffffffffffffff16815260200190815260200160002090506000816003015414610c20578060000160009054906101000a900473ffffffffffffffffffffffffffffffffffffffff1673ffffffffffffffffffffffffffffffffffffffff166108fc82600301549081150290604051600060405180830381858888f19350505050158015610c1e573d6000803e3d6000fd5b505b6002816004015481548110610c3857610c376117f7565b5b9060005260206000200160006101000a81549073ffffffffffffffffffffffffffffffffffffffff0219169055600160008473ffffffffffffffffffffffffffffffffffffffff1673ffffffffffffffffffffffffffffffffffffffff168152602001908152602001600020600080820160006101000a81549073ffffffffffffffffffffffffffffffffffffffff0219169055600182016000610cdc9190610d91565b600282016000610cec9190610d91565b600382016000905560048201600090555050505050565b60606002805480602002602001604051908101604052809291908181526020018280548015610d8757602002820191906000526020600020905b8160009054906101000a900473ffffffffffffffffffffffffffffffffffffffff1673ffffffffffffffffffffffffffffffffffffffff1681526020019060010190808311610d3d575b5050505050905090565b508054610d9d906113b8565b6000825580601f10610daf5750610dce565b601f016020900490600052602060002090810190610dcd9190610dd1565b5b50565b5b80821115610dea576000816000905550600101610dd2565b5090565b6000604051905090565b600080fd5b600080fd5b600073ffffffffffffffffffffffffffffffffffffffff82169050919050565b6000610e2d82610e02565b9050919050565b610e3d81610e22565b8114610e4857600080fd5b50565b600081359050610e5a81610e34565b92915050565b600060208284031215610e7657610e75610df8565b5b6000610e8484828501610e4b565b91505092915050565b6000819050919050565b610ea081610e8d565b8114610eab57600080fd5b50565b600081359050610ebd81610e97565b92915050565b600060208284031215610ed957610ed8610df8565b5b6000610ee784828501610eae565b91505092915050565b610ef981610e22565b82525050565b6000602082019050610f146000830184610ef0565b92915050565b600081519050919050565b600082825260208201905092915050565b60005b83811015610f54578082015181840152602081019050610f39565b60008484015250505050565b6000601f19601f8301169050919050565b6000610f7c82610f1a565b610f868185610f25565b9350610f96818560208601610f36565b610f9f81610f60565b840191505092915050565b610fb381610e8d565b82525050565b600060a082019050610fce6000830188610ef0565b8181036020830152610fe08187610f71565b90508181036040830152610ff48186610f71565b90506110036060830185610faa565b6110106080830184610faa565b9695505050505050565b600080fd5b600080fd5b7f4e487b7100000000000000000000000000000000000000000000000000000000600052604160045260246000fd5b61105c82610f60565b810181811067ffffffffffffffff8211171561107b5761107a611024565b5b80604052505050565b600061108e610dee565b905061109a8282611053565b919050565b600067ffffffffffffffff8211156110ba576110b9611024565b5b6110c382610f60565b9050602081019050919050565b82818337600083830152505050565b60006110f26110ed8461109f565b611084565b90508281526020810184848401111561110e5761110d61101f565b5b6111198482856110d0565b509392505050565b600082601f8301126111365761113561101a565b5b81356111468482602086016110df565b91505092915050565b60008060006060848603121561116857611167610df8565b5b600061117686828701610e4b565b935050602084013567ffffffffffffffff81111561119757611196610dfd565b5b6111a386828701611121565b925050604084013567ffffffffffffffff8111156111c4576111c3610dfd565b5b6111d086828701611121565b9150509250925092565b600081519050919050565b600082825260208201905092915050565b6000819050602082019050919050565b61120f81610e22565b82525050565b60006112218383611206565b60208301905092915050565b6000602082019050919050565b6000611245826111da565b61124f81856111e5565b935061125a836111f6565b8060005b8381101561128b5781516112728882611215565b975061127d8361122d565b92505060018101905061125e565b5085935050505092915050565b600060208201905081810360008301526112b2818461123a565b905092915050565b7f546869732063686172697479206973206e6f7420726567697374657265642e00600082015250565b60006112f0601f83610f25565b91506112fb826112ba565b602082019050919050565b6000602082019050818103600083015261131f816112e3565b9050919050565b7f4e487b7100000000000000000000000000000000000000000000000000000000600052601160045260246000fd5b600061136082610e8d565b915061136b83610e8d565b925082820190508082111561138357611382611326565b5b92915050565b7f4e487b7100000000000000000000000000000000000000000000000000000000600052602260045260246000fd5b600060028204905060018216806113d057607f821691505b6020821081036113e3576113e2611389565b5b50919050565b7f4f6e6c7920746865206d616e616765722063616e20706572666f726d2074686960008201527f7320616374696f6e2e0000000000000000000000000000000000000000000000602082015250565b6000611445602983610f25565b9150611450826113e9565b604082019050919050565b6000602082019050818103600083015261147481611438565b9050919050565b7f54686973206368617269747920697320616c726561647920696e206f7572206c60008201527f6973742e00000000000000000000000000000000000000000000000000000000602082015250565b60006114d7602483610f25565b91506114e28261147b565b604082019050919050565b60006020820190508181036000830152611506816114ca565b9050919050565b60008190508160005260206000209050919050565b60006020601f8301049050919050565b600082821b905092915050565b60006008830261156f7fffffffffffffffffffffffffffffffffffffffffffffffffffffffffffffffff82611532565b6115798683611532565b95508019841693508086168417925050509392505050565b6000819050919050565b60006115b66115b16115ac84610e8d565b611591565b610e8d565b9050919050565b6000819050919050565b6115d08361159b565b6115e46115dc826115bd565b84845461153f565b825550505050565b600090565b6115f96115ec565b6116048184846115c7565b505050565b5b818110156116285761161d6000826115f1565b60018101905061160a565b5050565b601f82111561166d5761163e8161150d565b61164784611522565b81016020851015611656578190505b61166a61166285611522565b830182611609565b50505b505050565b600082821c905092915050565b600061169060001984600802611672565b1980831691505092915050565b60006116a9838361167f565b9150826002028217905092915050565b6116c282610f1a565b67ffffffffffffffff8111156116db576116da611024565b5b6116e582546113b8565b6116f082828561162c565b600060209050601f8311600181146117235760008415611711578287015190505b61171b858261169d565b865550611783565b601f1984166117318661150d565b60005b8281101561175957848901518255600182019150602085019450602081019050611734565b868310156117765784890151611772601f89168261167f565b8355505b6001600288020188555050505b505050505050565b7f5468657265206973206e6f2066756e64732e0000000000000000000000000000600082015250565b60006117c1601283610f25565b91506117cc8261178b565b602082019050919050565b600060208201905081810360008301526117f0816117b4565b9050919050565b7f4e487b7100000000000000000000000000000000000000000000000000000000600052603260045260246000fdfea2646970667358221220d45367bc7e3bc52d2b2a79c635925e5270993487a5db073eebecf3896ffca88864736f6c63430008130033",
  "linkReferences": {},
  "deployedLinkReferences": {}
}