{
  "_format": "hh-sol-artifact-1",
  "contractName": "Donate",
  "sourceName": "contracts/Donate.sol",
  "abi": [
    {
      "inputs": [],
      "stateMutability": "payable",
      "type": "constructor"
    },
    {
      "inputs": [
        {
          "internalType": "address",
          "name": "charityAddress",
          "type": "address"
        },
        {
          "internalType": "string",
          "name": "name",
          "type": "string"
        },
        {
          "internalType": "string",
          "name": "description",
          "type": "string"
        }
      ],
      "name": "addCharity",
      "outputs": [],
      "stateMutability": "payable",
      "type": "function"
    },
    {
      "inputs": [],
      "name": "beTheOwner",
      "outputs": [],
      "stateMutability": "payable",
      "type": "function"
    },
    {
      "inputs": [
        {
          "internalType": "address",
          "name": "",
          "type": "address"
        }
      ],
      "name": "charities",
      "outputs": [
        {
          "internalType": "address",
          "name": "withdrawAddress",
          "type": "address"
        },
        {
          "internalType": "string",
          "name": "name",
          "type": "string"
        },
        {
          "internalType": "string",
          "name": "description",
          "type": "string"
        },
        {
          "internalType": "bool",
          "name": "is_withdrawn",
          "type": "bool"
        },
        {
          "internalType": "uint256",
          "name": "balance",
          "type": "uint256"
        }
      ],
      "stateMutability": "view",
      "type": "function"
    },
    {
      "inputs": [
        {
          "internalType": "address",
          "name": "charityAddress",
          "type": "address"
        }
      ],
      "name": "donate",
      "outputs": [],
      "stateMutability": "payable",
      "type": "function"
    },
    {
      "inputs": [],
      "name": "owner",
      "outputs": [
        {
          "internalType": "address",
          "name": "",
          "type": "address"
        }
      ],
      "stateMutability": "view",
      "type": "function"
    },
    {
      "inputs": [
        {
          "internalType": "address",
          "name": "charityAddress",
          "type": "address"
        }
      ],
      "name": "removeCharity",
      "outputs": [],
      "stateMutability": "payable",
      "type": "function"
    },
    {
      "inputs": [],
      "name": "withDraw",
      "outputs": [],
      "stateMutability": "payable",
      "type": "function"
    }
  ],
  "bytecode": "0x6080604052336000806101000a81548173ffffffffffffffffffffffffffffffffffffffff021916908373ffffffffffffffffffffffffffffffffffffffff160217905550611501806100536000396000f3fe60806040526004361061006f5760003560e01c80633843058f1161004e5780633843058f146100db5780638da5cb5b146100f7578063abefe59114610122578063aeda40d21461013e5761006f565b8062362a95146100745780630fdb1c10146100905780632478239a1461009a575b600080fd5b61008e60048036038101906100899190610c52565b610148565b005b61009861027a565b005b3480156100a657600080fd5b506100c160048036038101906100bc9190610c52565b61045d565b6040516100d2959493929190610d52565b60405180910390f35b6100f560048036038101906100f09190610ee8565b6105d0565b005b34801561010357600080fd5b5061010c610854565b6040516101199190610f73565b60405180910390f35b61013c60048036038101906101379190610c52565b610878565b005b610146610b41565b005b80600073ffffffffffffffffffffffffffffffffffffffff16600160008373ffffffffffffffffffffffffffffffffffffffff1673ffffffffffffffffffffffffffffffffffffffff16815260200190815260200160002060000160009054906101000a900473ffffffffffffffffffffffffffffffffffffffff1673ffffffffffffffffffffffffffffffffffffffff160361021a576040517f08c379a000000000000000000000000000000000000000000000000000000000815260040161021190610fda565b60405180910390fd5b6000600160008473ffffffffffffffffffffffffffffffffffffffff1673ffffffffffffffffffffffffffffffffffffffff168152602001908152602001600020905034816004015461026d9190611029565b8160040181905550505050565b33600073ffffffffffffffffffffffffffffffffffffffff16600160008373ffffffffffffffffffffffffffffffffffffffff1673ffffffffffffffffffffffffffffffffffffffff16815260200190815260200160002060000160009054906101000a900473ffffffffffffffffffffffffffffffffffffffff1673ffffffffffffffffffffffffffffffffffffffff160361034c576040517f08c379a000000000000000000000000000000000000000000000000000000000815260040161034390610fda565b60405180910390fd5b6000600160003373ffffffffffffffffffffffffffffffffffffffff1673ffffffffffffffffffffffffffffffffffffffff16815260200190815260200160002060040154036103d1576040517f08c379a00000000000000000000000000000000000000000000000000000000081526004016103c8906110a9565b60405180910390fd5b3373ffffffffffffffffffffffffffffffffffffffff166108fc600160003373ffffffffffffffffffffffffffffffffffffffff1673ffffffffffffffffffffffffffffffffffffffff168152602001908152602001600020600401549081150290604051600060405180830381858888f19350505050158015610459573d6000803e3d6000fd5b5050565b60016020528060005260406000206000915090508060000160009054906101000a900473ffffffffffffffffffffffffffffffffffffffff16908060010180546104a6906110f8565b80601f01602080910402602001604051908101604052809291908181526020018280546104d2906110f8565b801561051f5780601f106104f45761010080835404028352916020019161051f565b820191906000526020600020905b81548152906001019060200180831161050257829003601f168201915b505050505090806002018054610534906110f8565b80601f0160208091040260200160405190810160405280929190818152602001828054610560906110f8565b80156105ad5780601f10610582576101008083540402835291602001916105ad565b820191906000526020600020905b81548152906001019060200180831161059057829003601f168201915b5050505050908060030160009054906101000a900460ff16908060040154905085565b60008054906101000a900473ffffffffffffffffffffffffffffffffffffffff1673ffffffffffffffffffffffffffffffffffffffff163373ffffffffffffffffffffffffffffffffffffffff161461065e576040517f08c379a00000000000000000000000000000000000000000000000000000000081526004016106559061119b565b60405180910390fd5b600073ffffffffffffffffffffffffffffffffffffffff16600160008573ffffffffffffffffffffffffffffffffffffffff1673ffffffffffffffffffffffffffffffffffffffff16815260200190815260200160002060000160009054906101000a900473ffffffffffffffffffffffffffffffffffffffff1673ffffffffffffffffffffffffffffffffffffffff161461072f576040517f08c379a00000000000000000000000000000000000000000000000000000000081526004016107269061122d565b60405180910390fd5b6040518060a001604052808473ffffffffffffffffffffffffffffffffffffffff1681526020018381526020018281526020016000151581526020016000815250600160008573ffffffffffffffffffffffffffffffffffffffff1673ffffffffffffffffffffffffffffffffffffffff16815260200190815260200160002060008201518160000160006101000a81548173ffffffffffffffffffffffffffffffffffffffff021916908373ffffffffffffffffffffffffffffffffffffffff160217905550602082015181600101908161080b91906113f9565b50604082015181600201908161082191906113f9565b5060608201518160030160006101000a81548160ff02191690831515021790555060808201518160040155905050505050565b60008054906101000a900473ffffffffffffffffffffffffffffffffffffffff1681565b60008054906101000a900473ffffffffffffffffffffffffffffffffffffffff1673ffffffffffffffffffffffffffffffffffffffff163373ffffffffffffffffffffffffffffffffffffffff1614610906576040517f08c379a00000000000000000000000000000000000000000000000000000000081526004016108fd9061119b565b60405180910390fd5b80600073ffffffffffffffffffffffffffffffffffffffff16600160008373ffffffffffffffffffffffffffffffffffffffff1673ffffffffffffffffffffffffffffffffffffffff16815260200190815260200160002060000160009054906101000a900473ffffffffffffffffffffffffffffffffffffffff1673ffffffffffffffffffffffffffffffffffffffff16036109d8576040517f08c379a00000000000000000000000000000000000000000000000000000000081526004016109cf90610fda565b60405180910390fd5b6000600160008473ffffffffffffffffffffffffffffffffffffffff1673ffffffffffffffffffffffffffffffffffffffff16815260200190815260200160002090506000816004015414610a97578060000160009054906101000a900473ffffffffffffffffffffffffffffffffffffffff1673ffffffffffffffffffffffffffffffffffffffff166108fc82600401549081150290604051600060405180830381858888f19350505050158015610a95573d6000803e3d6000fd5b505b600160008473ffffffffffffffffffffffffffffffffffffffff1673ffffffffffffffffffffffffffffffffffffffff168152602001908152602001600020600080820160006101000a81549073ffffffffffffffffffffffffffffffffffffffff0219169055600182016000610b0e9190610b83565b600282016000610b1e9190610b83565b6003820160006101000a81549060ff021916905560048201600090555050505050565b336000806101000a81548173ffffffffffffffffffffffffffffffffffffffff021916908373ffffffffffffffffffffffffffffffffffffffff160217905550565b508054610b8f906110f8565b6000825580601f10610ba15750610bc0565b601f016020900490600052602060002090810190610bbf9190610bc3565b5b50565b5b80821115610bdc576000816000905550600101610bc4565b5090565b6000604051905090565b600080fd5b600080fd5b600073ffffffffffffffffffffffffffffffffffffffff82169050919050565b6000610c1f82610bf4565b9050919050565b610c2f81610c14565b8114610c3a57600080fd5b50565b600081359050610c4c81610c26565b92915050565b600060208284031215610c6857610c67610bea565b5b6000610c7684828501610c3d565b91505092915050565b610c8881610c14565b82525050565b600081519050919050565b600082825260208201905092915050565b60005b83811015610cc8578082015181840152602081019050610cad565b60008484015250505050565b6000601f19601f8301169050919050565b6000610cf082610c8e565b610cfa8185610c99565b9350610d0a818560208601610caa565b610d1381610cd4565b840191505092915050565b60008115159050919050565b610d3381610d1e565b82525050565b6000819050919050565b610d4c81610d39565b82525050565b600060a082019050610d676000830188610c7f565b8181036020830152610d798187610ce5565b90508181036040830152610d8d8186610ce5565b9050610d9c6060830185610d2a565b610da96080830184610d43565b9695505050505050565b600080fd5b600080fd5b7f4e487b7100000000000000000000000000000000000000000000000000000000600052604160045260246000fd5b610df582610cd4565b810181811067ffffffffffffffff82111715610e1457610e13610dbd565b5b80604052505050565b6000610e27610be0565b9050610e338282610dec565b919050565b600067ffffffffffffffff821115610e5357610e52610dbd565b5b610e5c82610cd4565b9050602081019050919050565b82818337600083830152505050565b6000610e8b610e8684610e38565b610e1d565b905082815260208101848484011115610ea757610ea6610db8565b5b610eb2848285610e69565b509392505050565b600082601f830112610ecf57610ece610db3565b5b8135610edf848260208601610e78565b91505092915050565b600080600060608486031215610f0157610f00610bea565b5b6000610f0f86828701610c3d565b935050602084013567ffffffffffffffff811115610f3057610f2f610bef565b5b610f3c86828701610eba565b925050604084013567ffffffffffffffff811115610f5d57610f5c610bef565b5b610f6986828701610eba565b9150509250925092565b6000602082019050610f886000830184610c7f565b92915050565b7f546869732063686172697479206973206e6f7420726567697374657265642e00600082015250565b6000610fc4601f83610c99565b9150610fcf82610f8e565b602082019050919050565b60006020820190508181036000830152610ff381610fb7565b9050919050565b7f4e487b7100000000000000000000000000000000000000000000000000000000600052601160045260246000fd5b600061103482610d39565b915061103f83610d39565b925082820190508082111561105757611056610ffa565b5b92915050565b7f5468657265206973206e6f2066756e64732e0000000000000000000000000000600082015250565b6000611093601283610c99565b915061109e8261105d565b602082019050919050565b600060208201905081810360008301526110c281611086565b9050919050565b7f4e487b7100000000000000000000000000000000000000000000000000000000600052602260045260246000fd5b6000600282049050600182168061111057607f821691505b602082108103611123576111226110c9565b5b50919050565b7f4f6e6c7920746865206f776e65722063616e20706572666f726d20746869732060008201527f616374696f6e2e00000000000000000000000000000000000000000000000000602082015250565b6000611185602783610c99565b915061119082611129565b604082019050919050565b600060208201905081810360008301526111b481611178565b9050919050565b7f54686973206368617269747920697320616c726561647920696e206f7572206c60008201527f6973742e00000000000000000000000000000000000000000000000000000000602082015250565b6000611217602483610c99565b9150611222826111bb565b604082019050919050565b600060208201905081810360008301526112468161120a565b9050919050565b60008190508160005260206000209050919050565b60006020601f8301049050919050565b600082821b905092915050565b6000600883026112af7fffffffffffffffffffffffffffffffffffffffffffffffffffffffffffffffff82611272565b6112b98683611272565b95508019841693508086168417925050509392505050565b6000819050919050565b60006112f66112f16112ec84610d39565b6112d1565b610d39565b9050919050565b6000819050919050565b611310836112db565b61132461131c826112fd565b84845461127f565b825550505050565b600090565b61133961132c565b611344818484611307565b505050565b5b818110156113685761135d600082611331565b60018101905061134a565b5050565b601f8211156113ad5761137e8161124d565b61138784611262565b81016020851015611396578190505b6113aa6113a285611262565b830182611349565b50505b505050565b600082821c905092915050565b60006113d0600019846008026113b2565b1980831691505092915050565b60006113e983836113bf565b9150826002028217905092915050565b61140282610c8e565b67ffffffffffffffff81111561141b5761141a610dbd565b5b61142582546110f8565b61143082828561136c565b600060209050601f8311600181146114635760008415611451578287015190505b61145b85826113dd565b8655506114c3565b601f1984166114718661124d565b60005b8281101561149957848901518255600182019150602085019450602081019050611474565b868310156114b657848901516114b2601f8916826113bf565b8355505b6001600288020188555050505b50505050505056fea26469706673582212204032d356a027ce8bffc25a30302450e707b946b4d1cbc4caf42c23ecf91758a464736f6c63430008130033",
  "linkReferences": {},
  "deployedLinkReferences": {}
}